{
  "_format": "hh-sol-artifact-1",
  "contractName": "PrideToken",
  "sourceName": "contracts/PrideToken.sol",
  "abi": [
    {
      "inputs": [
        {
          "internalType": "uint256",
          "name": "initialSupply",
          "type": "uint256"
        },
        {
          "internalType": "address",
          "name": "initialOwner",
          "type": "address"
        }
      ],
      "stateMutability": "nonpayable",
      "type": "constructor"
    },
    {
      "inputs": [
        {
          "internalType": "address",
          "name": "spender",
          "type": "address"
        },
        {
          "internalType": "uint256",
          "name": "allowance",
          "type": "uint256"
        },
        {
          "internalType": "uint256",
          "name": "needed",
          "type": "uint256"
        }
      ],
      "name": "ERC20InsufficientAllowance",
      "type": "error"
    },
    {
      "inputs": [
        {
          "internalType": "address",
          "name": "sender",
          "type": "address"
        },
        {
          "internalType": "uint256",
          "name": "balance",
          "type": "uint256"
        },
        {
          "internalType": "uint256",
          "name": "needed",
          "type": "uint256"
        }
      ],
      "name": "ERC20InsufficientBalance",
      "type": "error"
    },
    {
      "inputs": [
        {
          "internalType": "address",
          "name": "approver",
          "type": "address"
        }
      ],
      "name": "ERC20InvalidApprover",
      "type": "error"
    },
    {
      "inputs": [
        {
          "internalType": "address",
          "name": "receiver",
          "type": "address"
        }
      ],
      "name": "ERC20InvalidReceiver",
      "type": "error"
    },
    {
      "inputs": [
        {
          "internalType": "address",
          "name": "sender",
          "type": "address"
        }
      ],
      "name": "ERC20InvalidSender",
      "type": "error"
    },
    {
      "inputs": [
        {
          "internalType": "address",
          "name": "spender",
          "type": "address"
        }
      ],
      "name": "ERC20InvalidSpender",
      "type": "error"
    },
    {
      "inputs": [
        {
          "internalType": "address",
          "name": "owner",
          "type": "address"
        }
      ],
      "name": "OwnableInvalidOwner",
      "type": "error"
    },
    {
      "inputs": [
        {
          "internalType": "address",
          "name": "account",
          "type": "address"
        }
      ],
      "name": "OwnableUnauthorizedAccount",
      "type": "error"
    },
    {
      "anonymous": false,
      "inputs": [
        {
          "indexed": true,
          "internalType": "address",
          "name": "owner",
          "type": "address"
        },
        {
          "indexed": true,
          "internalType": "address",
          "name": "spender",
          "type": "address"
        },
        {
          "indexed": false,
          "internalType": "uint256",
          "name": "value",
          "type": "uint256"
        }
      ],
      "name": "Approval",
      "type": "event"
    },
    {
      "anonymous": false,
      "inputs": [
        {
          "indexed": true,
          "internalType": "address",
          "name": "previousOwner",
          "type": "address"
        },
        {
          "indexed": true,
          "internalType": "address",
          "name": "newOwner",
          "type": "address"
        }
      ],
      "name": "OwnershipTransferred",
      "type": "event"
    },
    {
      "anonymous": false,
      "inputs": [
        {
          "indexed": true,
          "internalType": "address",
          "name": "from",
          "type": "address"
        },
        {
          "indexed": true,
          "internalType": "address",
          "name": "to",
          "type": "address"
        },
        {
          "indexed": false,
          "internalType": "uint256",
          "name": "value",
          "type": "uint256"
        }
      ],
      "name": "Transfer",
      "type": "event"
    },
    {
      "inputs": [
        {
          "internalType": "address",
          "name": "owner",
          "type": "address"
        },
        {
          "internalType": "address",
          "name": "spender",
          "type": "address"
        }
      ],
      "name": "allowance",
      "outputs": [
        {
          "internalType": "uint256",
          "name": "",
          "type": "uint256"
        }
      ],
      "stateMutability": "view",
      "type": "function"
    },
    {
      "inputs": [
        {
          "internalType": "address",
          "name": "spender",
          "type": "address"
        },
        {
          "internalType": "uint256",
          "name": "value",
          "type": "uint256"
        }
      ],
      "name": "approve",
      "outputs": [
        {
          "internalType": "bool",
          "name": "",
          "type": "bool"
        }
      ],
      "stateMutability": "nonpayable",
      "type": "function"
    },
    {
      "inputs": [
        {
          "internalType": "address",
          "name": "account",
          "type": "address"
        }
      ],
      "name": "balanceOf",
      "outputs": [
        {
          "internalType": "uint256",
          "name": "",
          "type": "uint256"
        }
      ],
      "stateMutability": "view",
      "type": "function"
    },
    {
      "inputs": [],
      "name": "decimals",
      "outputs": [
        {
          "internalType": "uint8",
          "name": "",
          "type": "uint8"
        }
      ],
      "stateMutability": "view",
      "type": "function"
    },
    {
      "inputs": [
        {
          "internalType": "address",
          "name": "to",
          "type": "address"
        },
        {
          "internalType": "uint256",
          "name": "amount",
          "type": "uint256"
        }
      ],
      "name": "mint",
      "outputs": [],
      "stateMutability": "nonpayable",
      "type": "function"
    },
    {
      "inputs": [],
      "name": "name",
      "outputs": [
        {
          "internalType": "string",
          "name": "",
          "type": "string"
        }
      ],
      "stateMutability": "view",
      "type": "function"
    },
    {
      "inputs": [],
      "name": "owner",
      "outputs": [
        {
          "internalType": "address",
          "name": "",
          "type": "address"
        }
      ],
      "stateMutability": "view",
      "type": "function"
    },
    {
      "inputs": [],
      "name": "renounceOwnership",
      "outputs": [],
      "stateMutability": "nonpayable",
      "type": "function"
    },
    {
      "inputs": [],
      "name": "symbol",
      "outputs": [
        {
          "internalType": "string",
          "name": "",
          "type": "string"
        }
      ],
      "stateMutability": "view",
      "type": "function"
    },
    {
      "inputs": [],
      "name": "totalSupply",
      "outputs": [
        {
          "internalType": "uint256",
          "name": "",
          "type": "uint256"
        }
      ],
      "stateMutability": "view",
      "type": "function"
    },
    {
      "inputs": [
        {
          "internalType": "address",
          "name": "recipient",
          "type": "address"
        },
        {
          "internalType": "uint256",
          "name": "amount",
          "type": "uint256"
        }
      ],
      "name": "transfer",
      "outputs": [
        {
          "internalType": "bool",
          "name": "",
          "type": "bool"
        }
      ],
      "stateMutability": "nonpayable",
      "type": "function"
    },
    {
      "inputs": [
        {
          "internalType": "address",
          "name": "from",
          "type": "address"
        },
        {
          "internalType": "address",
          "name": "to",
          "type": "address"
        },
        {
          "internalType": "uint256",
          "name": "value",
          "type": "uint256"
        }
      ],
      "name": "transferFrom",
      "outputs": [
        {
          "internalType": "bool",
          "name": "",
          "type": "bool"
        }
      ],
      "stateMutability": "nonpayable",
      "type": "function"
    },
    {
      "inputs": [
        {
          "internalType": "address",
          "name": "newOwner",
          "type": "address"
        }
      ],
      "name": "transferOwnership",
      "outputs": [],
      "stateMutability": "nonpayable",
      "type": "function"
    }
  ],
  "bytecode": "0x60806040523480156200001157600080fd5b5060405162000f8938038062000f89833981016040819052620000349162000380565b806040518060400160405280600a815260200169283934b232aa37b5b2b760b11b8152506040518060400160405280600381526020016214149160ea1b815250816003908162000085919062000464565b50600462000094828262000464565b5050506001600160a01b038116620000c757604051631e4fbdf760e01b8152600060048201526024015b60405180910390fd5b620000d281620001bd565b5060008211620001365760405162461bcd60e51b815260206004820152602860248201527f496e697469616c20737570706c79206d7573742062652067726561746572207460448201526768616e207a65726f60c01b6064820152608401620000be565b6001600160a01b0381166200018e5760405162461bcd60e51b815260206004820152601d60248201527f496e76616c696420696e697469616c206f776e657220616464726573730000006044820152606401620000be565b6200019a81836200020f565b81620001a560025490565b14620001b557620001b562000530565b50506200056e565b600580546001600160a01b038381166001600160a01b0319831681179093556040519116919082907f8be0079c531659141344cd1fd0a4f28419497f9722a3daafe3b4186f6b6457e090600090a35050565b6001600160a01b0382166200023b5760405163ec442f0560e01b815260006004820152602401620000be565b62000249600083836200024d565b5050565b6001600160a01b0383166200027c57806002600082825462000270919062000546565b90915550620002f09050565b6001600160a01b03831660009081526020819052604090205481811015620002d15760405163391434e360e21b81526001600160a01b03851660048201526024810182905260448101839052606401620000be565b6001600160a01b03841660009081526020819052604090209082900390555b6001600160a01b0382166200030e576002805482900390556200032d565b6001600160a01b03821660009081526020819052604090208054820190555b816001600160a01b0316836001600160a01b03167fddf252ad1be2c89b69c2b068fc378daa952ba7f163c4a11628f55a4df523b3ef836040516200037391815260200190565b60405180910390a3505050565b600080604083850312156200039457600080fd5b825160208401519092506001600160a01b0381168114620003b457600080fd5b809150509250929050565b634e487b7160e01b600052604160045260246000fd5b600181811c90821680620003ea57607f821691505b6020821081036200040b57634e487b7160e01b600052602260045260246000fd5b50919050565b601f8211156200045f57600081815260208120601f850160051c810160208610156200043a5750805b601f850160051c820191505b818110156200045b5782815560010162000446565b5050505b505050565b81516001600160401b03811115620004805762000480620003bf565b6200049881620004918454620003d5565b8462000411565b602080601f831160018114620004d05760008415620004b75750858301515b600019600386901b1c1916600185901b1785556200045b565b600085815260208120601f198616915b828110156200050157888601518255948401946001909101908401620004e0565b5085821015620005205787850151600019600388901b60f8161c191681555b5050505050600190811b01905550565b634e487b7160e01b600052600160045260246000fd5b808201808211156200056857634e487b7160e01b600052601160045260246000fd5b92915050565b610a0b806200057e6000396000f3fe608060405234801561001057600080fd5b50600436106100cf5760003560e01c806370a082311161008c57806395d89b411161006657806395d89b41146101aa578063a9059cbb146101b2578063dd62ed3e146101c5578063f2fde38b146101fe57600080fd5b806370a082311461015e578063715018a6146101875780638da5cb5b1461018f57600080fd5b806306fdde03146100d4578063095ea7b3146100f257806318160ddd1461011557806323b872dd14610127578063313ce5671461013a57806340c10f1914610149575b600080fd5b6100dc610211565b6040516100e99190610846565b60405180910390f35b6101056101003660046108b0565b6102a3565b60405190151581526020016100e9565b6002545b6040519081526020016100e9565b6101056101353660046108da565b6102bd565b604051601281526020016100e9565b61015c6101573660046108b0565b6102e1565b005b61011961016c366004610916565b6001600160a01b031660009081526020819052604090205490565b61015c6103ba565b6005546040516001600160a01b0390911681526020016100e9565b6100dc6103ce565b6101056101c03660046108b0565b6103dd565b6101196101d3366004610931565b6001600160a01b03918216600090815260016020908152604080832093909416825291909152205490565b61015c61020c366004610916565b610457565b60606003805461022090610964565b80601f016020809104026020016040519081016040528092919081815260200182805461024c90610964565b80156102995780601f1061026e57610100808354040283529160200191610299565b820191906000526020600020905b81548152906001019060200180831161027c57829003601f168201915b5050505050905090565b6000336102b1818585610495565b60019150505b92915050565b6000336102cb8582856104a7565b6102d6858585610525565b506001949350505050565b6102e9610584565b6001600160a01b0382166103445760405162461bcd60e51b815260206004820152601960248201527f496e76616c696420726563697069656e7420616464726573730000000000000060448201526064015b60405180910390fd5b600081116103945760405162461bcd60e51b815260206004820181905260248201527f416d6f756e74206d7573742062652067726561746572207468616e207a65726f604482015260640161033b565b61039e82826105b1565b806103a860025490565b10156103b6576103b661099e565b5050565b6103c2610584565b6103cc60006105e7565b565b60606004805461022090610964565b60006103e83361016c565b8211156104465760405162461bcd60e51b815260206004820152602660248201527f45524332303a207472616e7366657220616d6f756e7420657863656564732062604482015265616c616e636560d01b606482015260840161033b565b6104508383610639565b9392505050565b61045f610584565b6001600160a01b03811661048957604051631e4fbdf760e01b81526000600482015260240161033b565b610492816105e7565b50565b6104a28383836001610647565b505050565b6001600160a01b03838116600090815260016020908152604080832093861683529290522054600019811461051f578181101561051057604051637dc7a0d960e11b81526001600160a01b0384166004820152602481018290526044810183905260640161033b565b61051f84848484036000610647565b50505050565b6001600160a01b03831661054f57604051634b637e8f60e11b81526000600482015260240161033b565b6001600160a01b0382166105795760405163ec442f0560e01b81526000600482015260240161033b565b6104a283838361071c565b6005546001600160a01b031633146103cc5760405163118cdaa760e01b815233600482015260240161033b565b6001600160a01b0382166105db5760405163ec442f0560e01b81526000600482015260240161033b565b6103b66000838361071c565b600580546001600160a01b038381166001600160a01b0319831681179093556040519116919082907f8be0079c531659141344cd1fd0a4f28419497f9722a3daafe3b4186f6b6457e090600090a35050565b6000336102b1818585610525565b6001600160a01b0384166106715760405163e602df0560e01b81526000600482015260240161033b565b6001600160a01b03831661069b57604051634a1406b160e11b81526000600482015260240161033b565b6001600160a01b038085166000908152600160209081526040808320938716835292905220829055801561051f57826001600160a01b0316846001600160a01b03167f8c5be1e5ebec7d5bd14f71427d1e84f3dd0314c0f7b2291e5b200ac8c7c3b9258460405161070e91815260200190565b60405180910390a350505050565b6001600160a01b03831661074757806002600082825461073c91906109b4565b909155506107b99050565b6001600160a01b0383166000908152602081905260409020548181101561079a5760405163391434e360e21b81526001600160a01b0385166004820152602481018290526044810183905260640161033b565b6001600160a01b03841660009081526020819052604090209082900390555b6001600160a01b0382166107d5576002805482900390556107f4565b6001600160a01b03821660009081526020819052604090208054820190555b816001600160a01b0316836001600160a01b03167fddf252ad1be2c89b69c2b068fc378daa952ba7f163c4a11628f55a4df523b3ef8360405161083991815260200190565b60405180910390a3505050565b600060208083528351808285015260005b8181101561087357858101830151858201604001528201610857565b506000604082860101526040601f19601f8301168501019250505092915050565b80356001600160a01b03811681146108ab57600080fd5b919050565b600080604083850312156108c357600080fd5b6108cc83610894565b946020939093013593505050565b6000806000606084860312156108ef57600080fd5b6108f884610894565b925061090660208501610894565b9150604084013590509250925092565b60006020828403121561092857600080fd5b61045082610894565b6000806040838503121561094457600080fd5b61094d83610894565b915061095b60208401610894565b90509250929050565b600181811c9082168061097857607f821691505b60208210810361099857634e487b7160e01b600052602260045260246000fd5b50919050565b634e487b7160e01b600052600160045260246000fd5b808201808211156102b757634e487b7160e01b600052601160045260246000fdfea26469706673582212202dbb772a1117ff84f044de12e92bff5f23d6b645861c9236ced473c2a30f44ab64736f6c63430008140033",
  "linkReferences": {},
  "deployedLinkReferences": {}
}