{
  "_format": "hh-sol-artifact-1",
  "contractName": "LiquidityMining",
  "sourceName": "contracts/LiquidityMining.sol",
  "abi": [
    {
      "inputs": [
        {
          "internalType": "contract IERC20",
          "name": "_rewardToken",
          "type": "address"
        },
        {
          "internalType": "contract IERC20",
          "name": "_lpToken",
          "type": "address"
        },
        {
          "internalType": "uint256",
          "name": "_rewardRate",
          "type": "uint256"
        }
      ],
      "stateMutability": "nonpayable",
      "type": "constructor"
    },
    {
      "inputs": [
        {
          "internalType": "address",
          "name": "owner",
          "type": "address"
        }
      ],
      "name": "OwnableInvalidOwner",
      "type": "error"
    },
    {
      "inputs": [
        {
          "internalType": "address",
          "name": "account",
          "type": "address"
        }
      ],
      "name": "OwnableUnauthorizedAccount",
      "type": "error"
    },
    {
      "anonymous": false,
      "inputs": [
        {
          "indexed": true,
          "internalType": "address",
          "name": "user",
          "type": "address"
        },
        {
          "indexed": false,
          "internalType": "uint256",
          "name": "reward",
          "type": "uint256"
        }
      ],
      "name": "Claim",
      "type": "event"
    },
    {
      "anonymous": false,
      "inputs": [
        {
          "indexed": true,
          "internalType": "address",
          "name": "previousOwner",
          "type": "address"
        },
        {
          "indexed": true,
          "internalType": "address",
          "name": "newOwner",
          "type": "address"
        }
      ],
      "name": "OwnershipTransferred",
      "type": "event"
    },
    {
      "anonymous": false,
      "inputs": [
        {
          "indexed": true,
          "internalType": "address",
          "name": "user",
          "type": "address"
        },
        {
          "indexed": false,
          "internalType": "uint256",
          "name": "amount",
          "type": "uint256"
        }
      ],
      "name": "Stake",
      "type": "event"
    },
    {
      "anonymous": false,
      "inputs": [
        {
          "indexed": true,
          "internalType": "address",
          "name": "user",
          "type": "address"
        },
        {
          "indexed": false,
          "internalType": "uint256",
          "name": "amount",
          "type": "uint256"
        }
      ],
      "name": "Withdraw",
      "type": "event"
    },
    {
      "inputs": [],
      "name": "accTokenPerShare",
      "outputs": [
        {
          "internalType": "uint256",
          "name": "",
          "type": "uint256"
        }
      ],
      "stateMutability": "view",
      "type": "function"
    },
    {
      "inputs": [],
      "name": "claimRewards",
      "outputs": [],
      "stateMutability": "nonpayable",
      "type": "function"
    },
    {
      "inputs": [],
      "name": "lastRewardBlock",
      "outputs": [
        {
          "internalType": "uint256",
          "name": "",
          "type": "uint256"
        }
      ],
      "stateMutability": "view",
      "type": "function"
    },
    {
      "inputs": [],
      "name": "lpToken",
      "outputs": [
        {
          "internalType": "contract IERC20",
          "name": "",
          "type": "address"
        }
      ],
      "stateMutability": "view",
      "type": "function"
    },
    {
      "inputs": [],
      "name": "owner",
      "outputs": [
        {
          "internalType": "address",
          "name": "",
          "type": "address"
        }
      ],
      "stateMutability": "view",
      "type": "function"
    },
    {
      "inputs": [],
      "name": "renounceOwnership",
      "outputs": [],
      "stateMutability": "nonpayable",
      "type": "function"
    },
    {
      "inputs": [],
      "name": "rewardRate",
      "outputs": [
        {
          "internalType": "uint256",
          "name": "",
          "type": "uint256"
        }
      ],
      "stateMutability": "view",
      "type": "function"
    },
    {
      "inputs": [],
      "name": "rewardToken",
      "outputs": [
        {
          "internalType": "contract IERC20",
          "name": "",
          "type": "address"
        }
      ],
      "stateMutability": "view",
      "type": "function"
    },
    {
      "inputs": [
        {
          "internalType": "uint256",
          "name": "amount",
          "type": "uint256"
        }
      ],
      "name": "stake",
      "outputs": [],
      "stateMutability": "nonpayable",
      "type": "function"
    },
    {
      "inputs": [],
      "name": "totalStaked",
      "outputs": [
        {
          "internalType": "uint256",
          "name": "",
          "type": "uint256"
        }
      ],
      "stateMutability": "view",
      "type": "function"
    },
    {
      "inputs": [
        {
          "internalType": "address",
          "name": "newOwner",
          "type": "address"
        }
      ],
      "name": "transferOwnership",
      "outputs": [],
      "stateMutability": "nonpayable",
      "type": "function"
    },
    {
      "inputs": [
        {
          "internalType": "address",
          "name": "",
          "type": "address"
        }
      ],
      "name": "userInfo",
      "outputs": [
        {
          "internalType": "uint256",
          "name": "amount",
          "type": "uint256"
        },
        {
          "internalType": "uint256",
          "name": "rewardDebt",
          "type": "uint256"
        }
      ],
      "stateMutability": "view",
      "type": "function"
    },
    {
      "inputs": [
        {
          "internalType": "uint256",
          "name": "amount",
          "type": "uint256"
        }
      ],
      "name": "withdraw",
      "outputs": [],
      "stateMutability": "nonpayable",
      "type": "function"
    }
  ],
  "bytecode": "0x608060405234801561001057600080fd5b50604051610ab1380380610ab183398101604081905261002f91610107565b338061005557604051631e4fbdf760e01b81526000600482015260240160405180910390fd5b61005e8161009b565b50600180546001600160a01b039485166001600160a01b031991821617909155600280549390941692169190911790915560035543600755610143565b600080546001600160a01b038381166001600160a01b0319831681178455604051919092169283917f8be0079c531659141344cd1fd0a4f28419497f9722a3daafe3b4186f6b6457e09190a35050565b80516001600160a01b038116811461010257600080fd5b919050565b60008060006060848603121561011c57600080fd5b610125846100eb565b9250610133602085016100eb565b9150604084015190509250925092565b61095f806101526000396000f3fe608060405234801561001057600080fd5b50600436106100cf5760003560e01c8063817b1cd21161008c578063a694fc3a11610066578063a694fc3a1461019f578063a9f8d181146101b2578063f2fde38b146101bb578063f7c618c1146101ce57600080fd5b8063817b1cd21461017c5780638da5cb5b146101855780638f6629151461019657600080fd5b80631959a002146100d45780632e1a7d4d14610115578063372500ab1461012a5780635fcbd28514610132578063715018a61461015d5780637b0a47ee14610165575b600080fd5b6100fb6100e2366004610843565b6004602052600090815260409020805460019091015482565b604080519283526020830191909152015b60405180910390f35b610128610123366004610873565b6101e1565b005b6101286103f9565b600254610145906001600160a01b031681565b6040516001600160a01b03909116815260200161010c565b610128610522565b61016e60035481565b60405190815260200161010c565b61016e60055481565b6000546001600160a01b0316610145565b61016e60065481565b6101286101ad366004610873565b610536565b61016e60075481565b6101286101c9366004610843565b610714565b600154610145906001600160a01b031681565b336000908152600460205260409020805482111561023b5760405162461bcd60e51b81526020600482015260126024820152711dda5d1a191c985dce881b9bdd0819dbdbd960721b60448201526064015b60405180910390fd5b610243610752565b6000816001015464e8d4a51000600654846000015461026291906108a2565b61026c91906108bf565b61027691906108e1565b905080156102f55760015460405163a9059cbb60e01b8152336004820152602481018390526001600160a01b039091169063a9059cbb906044016020604051808303816000875af11580156102cf573d6000803e3d6000fd5b505050506040513d601f19601f820116820180604052508101906102f391906108f4565b505b8282600001600082825461030991906108e1565b9091555050600654825464e8d4a5100091610323916108a2565b61032d91906108bf565b600183015560025460405163a9059cbb60e01b8152336004820152602481018590526001600160a01b039091169063a9059cbb906044016020604051808303816000875af1158015610383573d6000803e3d6000fd5b505050506040513d601f19601f820116820180604052508101906103a791906108f4565b5082600560008282546103ba91906108e1565b909155505060405183815233907f884edad9ce6fa2440d8a54cc123490eb96d2768479d49ff9c7366125a94243649060200160405180910390a2505050565b336000908152600460205260409020610410610752565b6000816001015464e8d4a51000600654846000015461042f91906108a2565b61043991906108bf565b61044391906108e1565b905080156104f75760015460405163a9059cbb60e01b8152336004820152602481018390526001600160a01b039091169063a9059cbb906044016020604051808303816000875af115801561049c573d6000803e3d6000fd5b505050506040513d601f19601f820116820180604052508101906104c091906108f4565b5060405181815233907f47cee97cb7acd717b3c0aa1435d004cd5b3c8c57d70dbceb4e4458bbd60e39d49060200160405180910390a25b600654825464e8d4a510009161050c916108a2565b61051691906108bf565b82600101819055505050565b61052a6107c6565b61053460006107f3565b565b33600090815260046020526040902061054d610752565b805415610608576000816001015464e8d4a51000600654846000015461057391906108a2565b61057d91906108bf565b61058791906108e1565b905080156106065760015460405163a9059cbb60e01b8152336004820152602481018390526001600160a01b039091169063a9059cbb906044016020604051808303816000875af11580156105e0573d6000803e3d6000fd5b505050506040513d601f19601f8201168201806040525081019061060491906108f4565b505b505b6002546040516323b872dd60e01b8152336004820152306024820152604481018490526001600160a01b03909116906323b872dd906064016020604051808303816000875af115801561065f573d6000803e3d6000fd5b505050506040513d601f19601f8201168201806040525081019061068391906108f4565b50818160000160008282546106989190610916565b9091555050600654815464e8d4a51000916106b2916108a2565b6106bc91906108bf565b816001018190555081600560008282546106d69190610916565b909155505060405182815233907febedb8b3c678666e7f36970bc8f57abf6d8fa2e828c0da91ea5b75bf68ed101a9060200160405180910390a25050565b61071c6107c6565b6001600160a01b03811661074657604051631e4fbdf760e01b815260006004820152602401610232565b61074f816107f3565b50565b600754431161075d57565b60055460000361076d5743600755565b60006003546007544361078091906108e1565b61078a91906108a2565b60055490915061079f8264e8d4a510006108a2565b6107a991906108bf565b600660008282546107ba9190610916565b90915550504360075550565b6000546001600160a01b031633146105345760405163118cdaa760e01b8152336004820152602401610232565b600080546001600160a01b038381166001600160a01b0319831681178455604051919092169283917f8be0079c531659141344cd1fd0a4f28419497f9722a3daafe3b4186f6b6457e09190a35050565b60006020828403121561085557600080fd5b81356001600160a01b038116811461086c57600080fd5b9392505050565b60006020828403121561088557600080fd5b5035919050565b634e487b7160e01b600052601160045260246000fd5b80820281158282048414176108b9576108b961088c565b92915050565b6000826108dc57634e487b7160e01b600052601260045260246000fd5b500490565b818103818111156108b9576108b961088c565b60006020828403121561090657600080fd5b8151801515811461086c57600080fd5b808201808211156108b9576108b961088c56fea264697066735822122088b1b3ca7cba8c4e35fba17dd1cf56cbdb0f4f326d44419f258f3325c58056a964736f6c63430008140033",
  "linkReferences": {},
  "deployedLinkReferences": {}
}